:020000041000EA
:1000000000200008EB0000100D0000004D01001062
:1000100000000000000000000000000000000000E0
:100020000000000000000000000000004901001076
:10003000000000000000000049010010490100100C
:100040004901001049010010490100104901001048
:100050004901001049010010490100104901001038
:100060004901001049010010490100104901001028
:100070004901001049010010490100104901001018
:1000800010B5064C2378002B07D1054B002B02D06E
:10009000044800E000BF0123237010BDB003000836
:1000A0000000000018140010044B10B5002B03D002
:1000B0000349044800E000BF10BDC0460000000036
:1000C000B4030008181400100230800803D0013077
:1000D0000238FCD1C046C0467047EFF3108072B6BC
:1000E000704780F3108870477047FFF7FDFF72B6C6
:1000F0000F4C104DAC4209DA21686268A368043BDA
:1001000002DBC858D050FAE70C34F3E70A490B4A2F
:100110000020521A02DD043A8850FCDC08480949E4
:100120000860BFF34F8F00F085FE00F02FFEFEE762
:10013000241400103C140010B0030008C805000887
:100140000000000808ED00E0FEE7FEE700B504202F
:100150007146084202D0EFF3098001E0EFF3088016
:10016000043000F021FCFEE7014B18607047C046E8
:10017000C4050008044B1B681A00AC3212881B6AC5
:100180005043C0187047C046C40500081D4B984234
:100190000FD010D840282FD005D8002830D01028F4
:1001A00028D019481EE0802828D080235B00984280
:1001B000F7D1144816E0154B984214D008D8A02364
:1001C0001B0698421CD0124B9842EAD1A0200BE0AB
:1001D000104B98420AD0104B984209D00F4B9842CE
:1001E000DFD10F487047A420C003FBE70D48F9E7B3
:1001F0000D48F7E70D48F5E70D48F3E70D48F1E73F
:100200000020EFE706005200FF005200010000F05E
:10021000090000A0040000F0050000F0030000F059
:100220000100520002005200030052000100500081
:10023000020050000500520010B50020FFF79AFFA1
:100240000A4B1C682300B0331B68C0180368002BDE
:100250000ADB074B1868FFF799FF012263689A6071
:100260009A68002AFCD110BD0248FCE7C4050008CA
:10027000CC03000802005000064B1B68B0331B681B
:10028000C3181B68002B03DA89B241600020704755
:100290000148FCE7C405000801008A000368002B40
:1002A00004DA89B2C2608160002070470048FCE730
:1002B00001008A00064B1B68B0331B68C3181B681B
:1002C000002B03DAC36800200B6070470148FCE78D
:1002D000C405000801008A00024B1A68002A00D1F8
:1002E00018607047E0030008F0B52C246043124CFE
:1002F0001F0024681E0A2018FF24274034400F4E98
:100300001B0C356807602E6A44608360AC352D880D
:1003100080346F4364013419BF191E0433430761ED
:100320004461A36000238361059BC2610162002BCD
:1003300001D01B888381F0BDE0030008C4050008DC
:10034000F0B5836885B002AD2B80154B02681B6841
:10035000066A9B8E476A9B186B8043680095826A89
:10036000C16A040003930369C068FFF7BDFF002161
:100370003B000A0000913000FFF7B6FF216B280018
:1003800000F0C6FA0022AB5E002B06DB1F221340F2
:100390001E3A9A401300034A136005B0F0BDC046F0
:1003A000C405000800E100E0F7B52C25134C6843B4
:1003B000266869433418256901937118002D19D0F6
:1003C0008869002818D12E68002E15DA6768012484
:1003D00026004B689E40B44613689EB263461B04D9
:1003E0001E431660EA608C61BC40019BA4B24B6264
:1003F000AC60FEBD0248FCE70248FAE7E0030008F3
:1004000004028A0007028A0073B5002642690400CC
:10041000D56801962B0CB34221D01B0413601368DE
:10042000194B00691B68B0331B68C3181B68B342C3
:1004300015DA01A9FFF73EFFB0420CD10198E2693D
:1004400003681E0CDBB29A4205D9226A9B009B58B6
:10045000002B00D0984731002069FFF70DFFADB2A7
:10046000002D09D063691D6000251B68636AAB42DB
:1004700005D098476562A56163691B6873BDA36A6F
:10048000002BF8D09847F6E7C40500082C2310B5D8
:100490004343034A1068C018FFF7B6FF10BDC046BB
:1004A000E0030008F8B5194B0F001B681A002E3244
:1004B0001278824227D9002925D01F250A681540C5
:1004C00021D11900AC310C88114E60431C6AD2084E
:1004D000041929007868346000F00CFF290020001E
:1004E000FFF7CAFE3A0029003068FFF7D7FE041E66
:1004F00007D101003068FFF7BFFE03002000002B8A
:1005000000D00448F8BD0448FCE7C046C405000814
:10051000E403000801018A0003018A0010B5002AE3
:100520000DD1002914D10B4B1A681300AC331B8872
:100530005843136AC018084B1860080010BD002902
:1005400006D0064B196019005A60FFF7ABFFF5E7BC
:100550000348F3E7C4050008E40300087803000833
:1005600003018A00F7B5184F04003B680191DE686B
:100570003368834226D90025A94202D1FFF7ADFD99
:10058000050038680368002B1ADA1F220123224075
:10059000934064097268A4001419226813420DD0B4
:1005A0009A43226000240021FFF766FE019B002B86
:1005B00002D12800FFF795FD2000FEBD034CF2E7B5
:1005C000034CF3E7034CF7E7E4030008020188005B
:1005D0000301880004018A000A4B1B68DB681A6863
:1005E00082420DD959681F23420918401E3B83409F
:1005F000920050581840431E9841034BC018704752
:100600000248FCE7E40300080001880004018A00B6
:10061000A6220549D2008B580220DB439B0702D05B
:1006200001238858184070470000264010B5FFF796
:10063000EFFF0023022801D1014B1B68180010BDF9
:10064000E8030008094A83009B18D02292009858BA
:1006500007221040042807D1C022920098581F2377
:1006600003408020400018437047C04600002640E9
:1006700010B5FFF7E7FF02281CD005D8002814D0DA
:10068000012814D0002011E01223FF33984214D027
:100690001423FF33984218D0033B9842F2D10C4AFE
:1006A0000C4BD058C00FC00300E00B4810BD0B4BE3
:1006B0001868FBE7FFF7BAFFF8E7094B186904234E
:1006C0001840F3D080200002F0E7014A054BE8E72C
:1006D000000026400C05000000127A00EC03000820
:1006E000000027403C050000B023154ADB00D3582A
:1006F00010B59903DB01DB0F890BC371114B01604E
:10070000D3580F24D904DB01DB0D0381B123DB00B7
:10071000D358C90C818019002140817219092140E8
:10072000C172D9029B009B0F8373074BC90CD3582E
:1007300081815A05DB01520FDB0D8271038210BDEE
:1007400000002640840500008C05000010B5104B09
:10075000421E1B683B331B78934216D97F221F240D
:100760008030FF300B4B8000C3581A400A701A0CBF
:100770002240180A8A701A012040E2404870002086
:100780009B009B0FCA700B7110BD0348FCE7C0466D
:10079000C40500080000264001004A00F0B587B0FB
:1007A0000400FFF765FF0600002C34D101AD1422D0
:1007B0002100280000F09EFD2800FFF795FFB023E0
:1007C000254ADB00D358002B03DAAC7B023C631EC6
:1007D0009C41EA79019F531E9A41A8880132002C5E
:1007E00016D00023190000F06FFC00230C00050058
:1007F0003A003000190000F067FCE6076A0832434F
:100800006308801859412A00230000F03DFC0600CF
:10081000300007B0F0BD114B1B683B331B78A3427F
:10082000F6D301AD05220021280000F063FD200071
:1008300029008034FFF78AFFFF34074BA400E358F8
:100840000024A34203DA2C79023C631E9C412F78DA
:100850006878AA78C3E7C04600002640C4050008AF
:10086000E02210B50124094B80009200C018835883
:1008700080589B069B0F9C400F231840FFF78EFF6C
:1008800063081818210000F073FB10BD000026401B
:10089000144B30B51A680724130028331B781F2B1C
:1008A00015D883081D00A5432C1E0FD1033420400A
:1008B000A040814012689B002032D3180A00FF211B
:1008C00081401C68624011406140196030BD802346
:1008D00020401B06184380239B011268C918890019
:1008E0008850F3E7C4050008064B9A6803000648E1
:1008F00010339B00824202D1985899507047034AA6
:10090000D058FBE700ED00E00000000800000010F8
:10091000F8B506000D0000283AD00023C05E00287C
:1009200028DB7188FFF7B4FF0024FF2203279446D9
:100930000023F05E716883B21F40FF006646BA4034
:1009400089013140D243B940002815DB114E83089C
:100950009B009B19C026B6009F593A4011439951FC
:100960000D4B9A680D4B9A4202D12900FFF7BCFF4C
:100970002000F8BD0A4CD8E70F263340083B064E4E
:100980009B089B009B19DE6932401143D961E7E760
:10099000034CEDE700E100E000ED00E0000000089E
:1009A00001005600FEE7000002680A4B10B51A600D
:1009B00042685A6082689A60C268DA6002691A61A5
:1009C00042695A6182699A61C269DA61FFF7EAFF96
:1009D00010BDC04690030008B0235B059A89002A29
:1009E00002D0988980B2704780204000FBE7000069
:1009F0007FB5274B86000D00F458042901D001294A
:100A000027D100200FE0A3682B420BD1E368290017
:100A10001A685B6802920193039302A823689847BF
:100A20001C4B1C606469002C0BD01B4B9842EAD114
:100A3000012DE8D1174B18481A68184B9A5104B089
:100A400070BD012DFBD1144B9842F3D0134B9C5138
:100A5000F5E7022906D10F4B1B68181EEFD01C6961
:100A600003E01C006369002BFBD10020002CE6D0C2
:100A7000A3682B4209D1E36829001A685B680292D7
:100A80000193039302A8236898472469EEE7C046C0
:100A9000300400082C040008FF004200180400087D
:100AA000194B1B68190004C9C96F51180968016204
:100AB00019000831C96F5218126842621A00413297
:100AC0001278002A1FD09A68E0321268D2061AD52E
:100AD000F222DB68D2019A580260F022D2019A58C1
:100AE00042600A4A9A588260094A9A58C260094A82
:100AF0009A580261084A9A584261084A9A58826193
:100B0000074A9B58C3617047C40500080478000079
:100B1000087800000C7800001078000014780000BD
:100B200018780000194B1B681A1D1968D26F8A18B3
:100B3000016A11601A0008321968D26F8A18416A76
:100B400011601A0041321278002A1ED09A68E032F1
:100B50001268D20619D5F0224168DB68D20199509B
:100B600081680B4A9950C1680A4A995001690A4A3A
:100B700099504169094A99508169094A9950C16956
:100B8000084A99500168E83299507047C405000836
:100B900004780000087800000C780000107800004D
:100BA0001478000018780000B023F7B55B055A7878
:100BB00007002126002A01D05E78F6B2624D6B68EC
:100BC000002B00D07CE0FFF788FA6B680090002BC8
:100BD00000D088E05D4C22681300AC3319880723ED
:100BE0004B43126A9B181A68002AFCDADB68DA00A9
:100BF00020D51B0F1B0756480193FFF751FF55499E
:100C0000212E00D074E0902022680001131DDC6FBB
:100C100013681C1923680B40034323601300083337
:100C20001268DB6FD3181A68114008431860484BEC
:100C3000019A13438022454E9205316813430A00FE
:100C4000AC321088072200244243096A5218D3604C
:100C500054605368FFF7C0FE80235B0098425CD16C
:100C6000380000F05DFB32681300AC3319880723AD
:100C70004B43126A9B181A68002AFCDADF68FB00F3
:100C800003D538010009FFF74DFF334B32681F4091
:100C90001300AC33198807234B43126A00989B1842
:100CA0000022DF605A60FFF71CFA002C0FD16B683E
:100CB000002B03D008210120FFF79AFE2000FEBD83
:100CC00001210800FFF794FE041E00D17BE76B684A
:100CD000002B03D002210120FFF78AFE1F4B9C420C
:100CE000ECD01F4CEAE704210120FFF781FE71E7F9
:100CF000802220685200031DDC6F03681C192368E2
:100D00000B4013432360030008330068DB6FC318F4
:100D1000186801400A431A6089E732681300B0334B
:100D20001B68126A9B181B68002B0ADB04230D4A00
:100D300011690B431361012F01D030BF93E720BF2E
:100D400091E7064C8FE7C04630040008C405000850
:100D5000F0030008FF00FFFFFFFFFFDF0500420078
:100D6000FF00420000ED00E0C02280200649520052
:100D70008B58C0059B009B0803438B5080238858E9
:100D80001B0603438B5070470000264010B562B627
:100D9000034800F0C7F80020FFF706FFFBE7C04656
:100DA0000020001010B50020FFF770FB10BD704749
:100DB00010B50020FFF754FD002829D0154B18600E
:100DC000154B1B681A1D1C68D36FE4182168090EA7
:100DD000013100F0CDF8114B18602168090AC9B241
:100DE000013100F0C5F80E4B441E18600D4920007B
:100DF00000F0BEF8FA210C4B013018708900200079
:100E000000F0B6F8094B01301860094BC0031860B8
:100E100010BDC04684000008C40500088800000812
:100E20008000000840420F00940000089000000875
:100E30008C00000810B52048FFF796F9B022E02199
:100E400030201E4CD200A35889005B005B08A350E1
:100E500063588343635080235B04A350184B194AA3
:100E6000E250A02204339201E250FF22164BE250DE
:100E7000FFF77AFFC02201215200A3588B43A350F1
:100E8000FFF795FFFFF794FF104B03201A6813003C
:100E9000AC33198807234B43126A80219B18002228
:100EA000DA605A600A4AFFF739FB0A48FFF714FA7A
:100EB0000948FFF745FA10BD301300100000264026
:100EC00084050000010002008C050000C405000834
:100ED0008003000844040008E41300109023034A30
:100EE0005B01D058032318407047C04600002040E3
:100EF00010B59024FFF7F1F8074B64011A59074920
:100F00001140074A0A431A51102259681142FCD075
:100F1000FFF7E7F810BDC04600002040FCFF0000CE
:100F20000100FA05F8B590250E4C6D010700FFF79A
:100F3000D4F863590600DB439B0701D1FFF7D8FFC4
:100F400080239B00E7506359074A1A40074B13431D
:100F50006351102362681A42FCD03000FFF7C1F8D9
:100F6000F8BDC04600002040FCFF00000300FA0569
:100F7000002243088B4274D303098B425FD3030AD8
:100F80008B4244D3030B8B4228D3030C8B420DD3EB
:100F9000FF22090212BA030C8B4202D31212090279
:100FA00065D0030B8B4219D300E0090AC30B8B42B7
:100FB00001D3CB03C01A5241830B8B4201D38B0365
:100FC000C01A5241430B8B4201D34B03C01A52410A
:100FD000030B8B4201D30B03C01A5241C30A8B424D
:100FE00001D3CB02C01A5241830A8B4201D38B0238
:100FF000C01A5241430A8B4201D34B02C01A5241DC
:10100000030A8B4201D30B02C01A5241CDD2C3094D
:101010008B4201D3CB01C01A524183098B4201D3C9
:101020008B01C01A524143098B4201D34B01C01AB4
:10103000524103098B4201D30B01C01A5241C3082C
:101040008B4201D3CB00C01A524183088B4201D39B
:101050008B00C01A524143088B4201D34B00C01A87
:101060005241411A00D20146524110467047FFE7F3
:1010700001B5002000F006F802BDC0460029F7D0F7
:1010800076E770477047C046002B11D1002A0FD178
:10109000002900D1002802D00021C943081C07B450
:1010A000024802A14018029003BDC046D9FFFFFFCD
:1010B00003B4684601B5029800F030F8019B9E46E3
:1010C00002B00CBC7047C046F0B5CE46474615048A
:1010D0002D0C2E0080B50704140C3F0C9946030C10
:1010E0007E435D43674363437F19340CE4199C4698
:1010F000A54203D980235B029846C4444B46434330
:101100005143250C36046544360C2404A4195B199C
:10111000591820000CBC90469946F0BDF0B54F46DA
:101120004646D646C0B5040082B00D0091469846AA
:101130008B422FD82CD04146484600F0CFF82900EA
:101140000600200000F0CAF8331A9C46203B9A465D
:1011500000D576E04B46524693401F004B46624610
:1011600093401E00AF4228D825D05346A41BBD4152
:10117000002B00DA7BE00022002300920193012380
:10118000524693400193012362469340009318E036
:101190008242D0D900220023009201930A9B002BA7
:1011A00001D01C605D600098019902B01CBC9046A3
:1011B0009946A246F0BDA342D7D90022002300924F
:1011C00001936346002BE9D0FB079846414672081D
:1011D0000A437B0866460EE0AB4201D1A2420CD81E
:1011E000A41A9D41012024196D410021013E2418BB
:1011F0004D41002E06D0AB42EED9013E24196D417F
:10120000002EF8D100980199534600196941002B2E
:1012100023DB2B005246D3402A006446E2401C00E8
:1012200053461500002B2DDB26005746BE403300E9
:1012300026006746BE403200801A99410090019115
:10124000ACE7624620239B1A4A46DA406146130007
:1012500042468A4017001F4380E7624620239B1ABC
:101260002A0066469A402300F3401343D4E76246BF
:10127000202300219B1A0022009101920122DA40D2
:10128000019280E72023624626009B1ADE402F0051
:10129000B0466646B74046463B003343C8E7C046C3
:1012A0001C2101231B04984201D3000C10391B0A96
:1012B000984201D3000A08391B09984201D300095A
:1012C000043902A2105C40187047C04604030202B1
:1012D00001010101000000000000000010B500291C
:1012E00003D1FFF7DDFF203002E0081CFFF7D8FF35
:1012F00010BDC04603001218934200D17047197008
:101300000133F9E7F8B5C046F8BC08BC9E46704703
:10131000F8B5C046F8BC08BC9E4670470000000007
:1013200001B40248844601BC604700BF6102000866
:1013300000002040000024400000004000000000A9
:1013400000002340000030400000314000009F407A
:10135000000022400000104020202020201010100B
:101360001D1D800017007500FF03060206360410DD
:10137000200000007FC0000000040000000000000A
:101380000019324B647D00804000080B1000000003
:101390000000FF012002001F00800004FF08101859
:1013A000001000140018001C4044484C500000007D
:1013B00008100000080000000400000004100000F5
:1013C00000120000042100000021000000160000AF
:1013D00040114002C41300138013A013200000002A
:1013E0001C000000030000000100000001000000DC
:1013F0000000000005036000040000000100000080
:101400000000000001000000060460000800000069
:10141000A4050008A50D00100000000000FDFF7FDE
:101420000100000000000010000000088000000023
:101430004414001080000008F8020000B003000807
:101440001802000000093D0000127A0000093D006A
:101450000000D007A00F000004000000A900001049
:101460008100001080B230B5C00020D0104B0722A0
:101470001C682300AC331B885A43236AD3181968AD
:101480000029FCDA3E210B4B062519600A4B0B495B
:101490001960A3210A4BC9005D500A495850585899
:1014A000206A1218002050605A58002AFCDA30BD19
:1014B000C405000804012640080126401E1F000044
:1014C000000026401C05000010B54378FF2B11D109
:1014D00000F0ECF80400032000F018F9C3685A6823
:1014E000012311681943116011681942FCD12000D1
:1014F00000F0F4F810BDF7B500900020019100F065
:1015000005F93F4D06002B681A004C33B0321468C1
:101510001B780419002B5AD000F0E8F807000328C4
:101520001BD000F0C3F8374A374B0500D358002BC7
:101530003EDA364A0121300000F0C0F8002837D1E9
:101540000198FFF78FFF009B002B3ED02368002BF4
:10155000FCDB00F0EBF804002BE0062000F0D6F8EE
:101560002B68B0331B68C0180368002B02DA284CC4
:101570002000FEBD002000F0C1F8264B9842F6D0B6
:101580000023254A19001268012000F09FF8002569
:10159000A842ECD1002000F0B1F81E4A1F4B904247
:1015A00003D09D42E3D00135F4E79D42B9D1DEE797
:1015B000174C032F05D10121002000F0AFF80028BF
:1015C000F9D1280000F08AF8D2E7154CF1E700F0D5
:1015D0006DF80E4A05000121300000F06FF8002878
:1015E00009D1009B002B08D02368002BFCDB00F006
:1015F0009DF80400E5E7064CE3E7094CE1E7C04647
:10160000C4050008000026401C050000CC030008AB
:101610000500520001018800DC030008F0490200C7
:1016200001005000184BF7B51B68184A5C6804238A
:1016300011690B431361012824D030BF2300FC3310
:101640001B69002B1DD1A320114B1249124AC00067
:101650000F681E5815680195104D0D6006251D5028
:101660003E2010600E483E351D501D58002DFCDAFE
:101670000C48FC3420610F60A321C9005E50019B1F
:101680001360F7BD20BFD9E7C405000800ED00E0F6
:101690000000264008012640040126401E1F0000CD
:1016A0001C050000AAAAAAAA0000000001B4024872
:1016B000844601BC604700BFDB00001001B4024853
:1016C000844601BC604700BF9D02001001B402487F
:1016D000844601BC604700BFA903001001B4024862
:1016E000844601BC604700BFE300001001B402481B
:1016F000844601BC604700BFDD0E001001B4024803
:10170000844601BC604700BFD905001001B40248FF
:10171000844601BC604700BF7501001001B4024857
:10172000844601BC604700BF6505001001B4024853
:10173000844601BC604700BF390200100000000071
:101740000000000000000000000000000000000099
:041750000000000095
:1020000000F80F08276800100D0000008968001014
:1020100089680010896800108968001000000000BD
:1020200000000000000000000000000085680010B3
:1020300085680010000000008568001085680010A9
:10204000856800108568001085680010856800109C
:10205000856800108568001085680010856800108C
:10206000856800108568001085680010856800107C
:10207000856800108568001085680010856800106C
:1022E00010B5054C237833B9044B13B10448AFF350
:1022F00000800123237010BDA0280008000000000A
:10230000E80D011008B5034B1BB103490348AFF3B7
:10231000008008BD00000000A4280008E80D01109E
:10232000154B002B08BF134B9D46A3F5803A0021A7
:102330008B460F461348144A121A0CF0B7FC0F4B89
:10234000002B00D098470E4B002B00D09847002060
:10235000002104000D000D48002802D00C4803F0B5
:1023600051FB0CF0D1FB2000290003F06FFD03F0BE
:102370000BFD00BF0000080000F80F08000000007F
:10238000055E0010A0280008B0750008055A00106E
:102390000000000000207047002070472DE9F04742
:1023A0001E4603689B6A1546DDE9087A044698478D
:1023B00002460B46284631460CF0EEFE134302D08F
:1023C0000020BDE8F087236820469B6A98470246B4
:1023D0000B46384651460CF0DFFE1343F0D123681C
:1023E00015EB07089B6B204646EB0A0998474945C1
:1023F00008BF40452CBF01200020E2E72DE9F0474F
:102400001E4603685B6A1546DDE9087A044698476C
:1024100002460B46284631460CF0BEFE134302D05E
:102420000020BDE8F087236820465B6A9847024693
:102430000B46384651460CF0AFFE1343F0D12368EB
:1024400015EB07089B6B204646EB0A099847494560
:1024500008BF40452CBF01200020E2E70368DB6A8B
:1024600018470120002170474FF400700021704789
:10247000D0F860010021704700487047B8F40010A0
:10248000D0E944017047FF207047F0B587B0164689
:102490000E9B059300220823071DCDE90223CDE9F9
:1024A0000022054602231146384601F0FDF9044694
:1024B00008B107B0F0BD05AB01930C9B00934FF042
:1024C000FF3233465A21384601F0A6FA95F8E23138
:1024D0000646CDE90244CDE900442246214638466D
:1024E00001F0E2F9034600280CBF30461846E0E749
:1024F0002DE9F0470168096B17469846DDE9089A0F
:102500000646884702460B46384641460CF044FED4
:10251000134302D00020BDE8F087336817EB0904AD
:1025200048EB0A0514F1FF32196B304645F1FF33D1
:10253000884702460B46204629460CF02DFE1343E1
:10254000E8D1336830469B6B9847A94208BFA04248
:102550002CBF01200020DEE710B504461946D4F850
:102560001831013310461AD104F5847201F063FB6F
:10257000431CD4F8602109D02044012190F8540173
:102580000023084205D0723354F823201046D11797
:1025900010BD01334900042B49B2F2D1F6E74FF4E4
:1025A00080500021F4E7F0B5D0E901140568DDF8AA
:1025B00014C04FEA640E05EB6400DDE90767E40729
:1025C00044BF55F80E406158CDF814C0CDE90767F7
:1025D000BDE8F040084730B5039D00241C702C7006
:1025E0008C7814F0200F15D04A7AC0F8E020012230
:1025F0001A700B7A03F01F0380F8E5310B7A5B1138
:102600009B0080F8E331022380F8E13180F8E63165
:10261000002030BD102A0FDD0A7CD2060CD5CA7E00
:10262000C0F8E02001221A702A708B7E03F01F038D
:1026300080F8E5318B7EE2E762060FD5CA7AC0F8F2
:10264000E02001221A708B7A03F01F0380F8E53135
:102650008B7A5B1180F8E3310223D7E70B7CDD072F
:102660000ED5CB7DC0F8E0308B7D03F01F0380F8E2
:10267000E5318B7D5B115B0080F8E3310123C3E71B
:10268000E20609D5CB7BC0F8E0308B7B03F01F035B
:1026900080F8E5318B7BEDE7E3070DD54B7BC0F888
:1026A000E0300B7B03F01F0380F8E5310B7B5B11FF
:1026B00080F8E3310123A9E70323C0F8E030A7E75E
:1026C0002DE9F7430A9E0C9FDDF83880DDF8409035
:1026D00001910446154600F08AF958B901990A9704
:1026E00033462A46201DCDE90B8903B0BDE8F043EF
:1026F00001F0FEB903B0BDE8F08300002DE9F04F12
:1027000091F8393091F838201B0103F0100343EAA7
:102710001213082B8BB0074654D019DC022B11DCA6
:1027200093B100240025CDE90645CDE902450023FB
:10273000049300934FF0FF324FF0FF333821FFF73F
:10274000BFFF01E0042B2ED000200BB0BDE8F08FBE
:10275000102BF9D14FF001084FF0000909AC4FF0F0
:10276000000A4FF0000B00254FF0FF324FF0FF330F
:102770006521CDE90689CDE902AB04940095FFF708
:102780009FFF9DF82430049403F07F038DF82430DC
:10279000CDE90689CDE902AB00954FF0FF324FF04D
:1027A000FF33612133E000230024002504930093CC
:1027B000CDE90645CDE902454FF0FF324FF0FF333A
:1027C0003521BCE74FF001084FF0000909AE0024A5
:1027D00000254FF0000A0F4A049600236521CDE939
:1027E0000689CDE90245CDF800A0FFF769FF9DF805
:1027F0002430084A0496CDE90689CDE9024543F024
:1028000040038DF82430CDF800A000237121384614
:1028100095E700BF03008000D0B51B4B8AB01B7842
:102820008DF82430032600270023CDE9066709AA86
:1028300000260027ADF8253004920093CDE9026709
:102840004FF0FF324FF0FF339F210446FFF738FF70
:10285000B0B99DF82430BF2B03D0C22B04D00AB0EE
:10286000D0BD84F80101FAE7012384F80031032385
:10287000C4F8E4301523C4F8EC3084F8F000EEE737
:102880004FF0FF30EBE700BFB1F500102DE9F0434A
:102890008BB0002381468DF8273042F21078012456
:1028A000002500260027012003F0CFFC0DF12703AF
:1028B000049300230093CDE906454FF0FF33CDE9A3
:1028C00002674FF0FF3205214846FFF7F9FE9DF8F9
:1028D000273013F0010302D0B8F10108E3D183F0EF
:1028E00001000BB0BDE8F083D0B591F83D3013F096
:1028F000080288B004461BD000260027CDE90667F1
:10290000CDE902670023049300934FF0FF324FF0AC
:10291000FF33F021FFF7D4FE10B1154808B0D0BD49
:102920002046FFF7B3FF0028124818BF0020F5E744
:10293000DB06F2D50026002704920092CDE9066757
:10294000CDE902674FF0FF324FF0FF336621FFF70A
:10295000B7FE0028E1D104900090CDE90667CDE9EB
:1029600002674FF0FF324FF0FF3399212046D1E745
:102970005EF0FFFF5DF0FFFFF0B58BB00023002697
:1029800000278DF8273004930093CDE90667CDE941
:1029900002674FF0FF324FF0FF3306210446FFF786
:1029A0008FFE054618B14FF0FF300BB0F0BD20464A
:1029B000FFF76CFF0028F6D001220023CDE90623A3
:1029C0000DF127030493CDE9026700954FF0FF3224
:1029D0004FF0FF3305212046FFF772FE0028E2D1B9
:1029E0009DF8270080F0020040F34000DDE770B55D
:1029F0001D46D0F8F430013386B0064617D0140EC9
:102A00008DF81740FFF7B8FF70B90123CDE9010039
:102A10000093D6F8F4100DF117034FF0FF32301D7C
:102A200001F066F806B070BD4FF0FF30FAE790F89D
:102A3000E231032B0ED06B1C08BFB2F1FF3F09D06F
:102A4000002D08BFB2F1807F2CBF4FF0FF30002077
:102A500040B2E7E70020E5E72DE9F04786B0904671
:102A6000DDF83890109B05934A460F9B05460F46AC
:102A7000FFF7BDFF044698BB95F8E531039395F841
:102A8000E63195F8E121029395F8E33195F8E011EC
:102A90002E1DCDE90023304695F8E23100F004FF09
:102AA00004468246E0B995F8E321B2FA82F205AB1A
:102AB0005209CDE9008352424B463946304600F078
:102AC000ABFFCDE902AA0446CDE900AA95F8E231B0
:102AD00052465146304600F0E7FE002818BF044633
:102AE000204606B0BDE8F08730B585B0DDE9084581
:102AF000CDE90023CDE902450A46D0F8E010FFF702
:102B0000ABFF002814BF6FF47A60002005B030BD21
:102B1000F7B5089E099B0A9F019115463246044667
:102B2000FFF765FF58B9019933464FF0FF32201D7A
:102B3000CDE9085703B0BDE8F04000F0A3BF03B0F3
:102B4000F0BD30B587B0044605911546FFF74FFF3D
:102B500040B9CDE901000090034605992A46201DA1
:102B600000F0C6FF07B030BD2DE9F04F89B0074631
:102B70008946164698460DF1180BDDE912342343B9
:102B800045D0D7F8D8A1002552462B4630464146BD
:102B90000CF002FB12995118049113994B410593C3
:102BA000DDE90401A94208BF504534BFDDF848A063
:102BB000AAEB020A544600253846CDE90645FFF740
:102BC000DBFE30BB8DE840094A4602213846FFF75C
:102BD0009FFF00BBDDE906239D4208BF92451AD145
:102BE000129B16EB0A0648EB0508B3EB0A03129397
:102BF000139B384663EB0503D1441393FFF746FE5E
:102C00000028BAD1A0F6A37009B0BDE8F08F00206B
:102C1000FAE70248F8E76FF47A60F5E75CF0FFFF47
:102C20002DE9F04F87B01F46DDE910B31646044684
:102C300000F5847239463046039300F0FCFF2218F9
:102C4000039B92F854218DF817201BEB060843EBE9
:102C50000709D4E944234B4508BF42455D468246F7
:102C600075D323683246D96C20463B4688470246D6
:102C70000B46304639460CF08FFA134367D1236870
:102C800018F1FF32D96C204649F1FF3388470246DC
:102C90000B46404649460CF07FFA134357D104F5E2
:102CA000907B002D55DDD4F81891B9F1FF3F4BD141
:102CB000CDF800B05346324629460DF1170000F01A
:102CC000DCFF04EB8000D0F8B891D0F8C881424610
:102CD0000023304639460CF05FFAAB1843452046D6
:102CE0002CBFA8EB0208A846FFF746FE98BB2A4671
:102CF000EB17CDE90023494632463B462046FFF715
:102D000020FF50BB16EB0806A5EB080547F10007AE
:102D1000002D0FDD04EBCA03D3E95A23BB4208BFE1
:102D2000B2423FBF0AF1010A04EB0A0393F854319F
:102D30008DF817302046FFF7A9FD0028B1D1A0F685
:102D4000A37007B0BDE8F08F4FF48058BFE7044888
:102D5000F7E70020F5E70348F3E76FF47A60F0E760
:102D60005BF0FFFF5CF0FFFF2DE9F0473F2A8AB0E0
:102D7000824640F3A78091F83F3013F0400219D00B
:102D800003238AF8E23100259AF8E231032B0DD1B2
:102D90000022CDE90222CDE9002211460AF1040009
:102DA00000F082FD002818BF6FF47A6528460AB04B
:102DB000BDE8F087D90710D500240025CDE90645E8
:102DC000CDE90245049200924FF0FF334FF0FF32FD
:102DD000B721FFF775FC88BBD2E713F0020212D0CF
:102DE000FFF7CAFD00286BD100220023CDE906239E
:102DF000CDE90223049000904FF0FF324FF0FF33F3
:102E0000B7215046E5E713F0100138D0012600271E
:102E10000DF127044FF000084FF000098DF827202E
:102E20000092CDE90667CDE9028904944FF0FF32A4
:102E30004FF0FF33B521FFF743FC08B1224DA3E764
:102E40009DF82730504643F001038DF82730FFF7F7
:102E500093FD0546A0BB0490CDE90689CDE9026744
:102E600000944FF0FF324FF0FF33B1215046FFF78F
:102E700027FC0028E2D103238AF8E23184E713F02B
:102E8000080214D0802300228DF827300023CDE9DA
:102E9000062301220023CDE902230DF1270304912B
:102EA00000934FF0FF324FF0FF33172191E713F0FB
:102EB00004054FF00203DFD0C521C0F8F41060E72D
:102EC000024D61E7002571E75EF0FFFF5CF0FFFF58
:102ED000F0B5012289B00023CDE9062300260023A6
:102EE00000270C4604910093CDE902674FF0FF32B2
:102EF0004FF0FF3305210546FFF7E2FB90B9D5F807
:102F0000E4300090013B0134CDE90630CDE90267A1
:102F1000D5F8EC1004944FF0FF324FF0FF33284601
:102F2000FFF7CEFB09B0F0BD2DE9F047D0F8E8304F
:102F3000013388B005468A461DD1FFF71DFD28B133
:102F40004FF0FF34204608B0BDE8F0870022002390
:102F5000CDE90623D5F8E4300490CDE90230CDF870
:102F600000A04FF0FF324FF0FF3301212846FFF75A
:102F7000A7FB0446E6E7D0F8E430022B05D01A4957
:102F80001A484FF4B76202F00FFAFFF7F5FC002879
:102F9000D6D14FF000084FF0000901260027049019
:102FA000CDE90689CDE90267CDF800A04FF0FF32E8
:102FB0004FF0FF3301212846FFF782FB044600282B
:102FC000C0D12846FFF7D8FC0028B9D1CDE9068941
:102FD000CDE90267D5F8E8100494CDF800A04FF0D1
:102FE000FF324FF0FF33C1E7BEF400100CF50010C4
:102FF00073B5394B1A788DF800208DF8042091F8BC
:103000003A20C2F302120023013A0446ADF801301F
:10301000ADF80530042A5AD8DFE802F0034B4F031D
:1030200003000123C0F8F830C4F8FC30D4F8F830BD
:10303000591C09D0D4F8FC104A1C05D002AA13442C
:1030400001228A4003F8082C01A92046FFF740FF1F
:103050009DF806309DF80220BDF800109DF8006034
:103060009DF801501343BDF804208DF806300A4343
:10307000204601A9ADF80420FFF756FF2046FFF7D0
:1030800005FC30B3002301A92046ADF804308DF8CB
:103090000630FFF71DFF9DF804301E409DF80530F7
:1030A0001D4056EA05030CBF4FF0FF30002002B070
:1030B00070BDC0F8F8300623B6E7C0F8F830072333
:1030C000C0F8FC303E253F23C0E93A53AEE700206C
:1030D000EDE74FF0FF30EAE7B1F5001030B5284BCF
:1030E0008BB01B788DF8243000230546ADF82530D1
:1030F000FFF7CCFB18B94FF0FF300BB030BD95F89F
:1031000001414CB1012C1FD02846FFF7BFFB80F0D6
:103110000100C0B24042F0E72846FFF72DFC00282E
:10312000E9D100220023CDE90623CDE90223049052
:1031300000904FF0FF324FF0FF3398212846FFF701
:10314000BFFA0028E0D0D6E709A92846FFF7C0FE5D
:103150000028D0D1D5F8F8307BB9D5F8FC309C40A8
:1031600044F00304E4B29DF8243009A91C40284629
:103170008DF82440FFF7D8FEE3E70324F3E700BF10
:10318000B1F5001030B5D0F8E430032B87B0044619
:1031900005D02249224840F28A4202F005F9214B2B
:1031A00000221B788DF81430CDE90222CDE90022EF
:1031B000022311460430ADF8152000F075FB18B15C
:1031C0004FF0FF3007B030BD05A92046FFF780FE65
:1031D0000028F5D19DF81630204643F002038DF803
:1031E0001630FFF7C9FB0028EAD105A92046FFF7F2
:1031F0009BFE05460028E3D12046FFF747FB002849
:10320000DED005A92046ADF814508DF81650FFF712
:103210005FFE003818BF01204042D3E7BEF4001023
:1032200027F50010B1F5001084B0F0B59BB004464E
:1032300021A880E80E00259E249932687568002335
:1032400029B93549354840F2F31202F0ADF8CDE91D
:10325000025306AD0095884730B14FF0FF301BB0E8
:10326000BDE8F04004B0704704F58477394628463D
:1032700000F03EFD0028F0DB3946284600F031FD25
:103280000028EADB7168284600F099FC2946C4F85A
:10329000D8012046FFF728FB0028DED18DF8160064
:1032A0008DF817003946284600F094FC0028D4DB3E
:1032B0000DF11703009372680DF11603294620469D
:1032C000FFF789F99DF8163093B194F8003113B1E6
:1032D0002046FFF757FF29462046FFF789FE0028C2
:1032E000BBD19DF817301BB129462046FFF706FADF
:1032F00094F8F0303BB92046FFF7C8FA80F001009F
:10330000C0B24042ABE7726829462046FFF72CFD69
:103310000028F0D0A1E700BF42F5001060F50010D2
:1033200010B586B00446684680E80C0006A800E99F
:103330000C00039110E90700034BE36084E80700E9
:10334000204606B010BD00BFA72500102DE9F047AC
:10335000D0F8D45092B0044655B1454A454BB5F12A
:10336000FF3F0CBF15461D46284612B0BDE8F0874A
:10337000CDE90255CDE90055061D90F8E2312A4607
:103380002946304600F090FA10B16FF47A65EBE709
:1033900094F8EC310BB9C4F8E851D4F8E87101376E
:1033A000012FC4F8E871DFD10023D4F8DC1184F8D0
:1033B000E33184F8E531304600F0C4FA05460028D0
:1033C000E3D12046FFF762FA00284FD02046FFF7EE
:1033D00023FA0028D9DBDFF8A8A0CDE90EA50DF16E
:1033E00018080EAE96E80C002146C4E94255C4E91F
:1033F0004855404604F58479FFF792FFCDF80090D8
:1034000098E80F0000F088FC002801DA1A4DABE7BD
:10341000CDE90EA50DF1280896E80C00214640469E
:10342000FFF77EFF0D9BCDF80490009398E80E0007
:103430002046FFF7F9FE0028E8DB2B4652462146DE
:103440003046CDE904A5FFF76BFFCDF8009096E874
:103450000F0000F0A0FC0028D8DB2046FFF73EFE5E
:1034600005460028D2D184F8EC717DE7034D7BE757
:103470005AF0FFFF59F0FFFF5EF0FFFF5DF0FFFF26
:103480008B24001008B50346024653F8040B20B9FC
:10349000106810B91360184608BD9842FCD0024964
:1034A00002488B2201F080FF6CF500108EF50010B1
:1034B000F8B516480D46FFF7E5FF154A10680928CC
:1034C0001DDC144B1B68191F1C4603F1240651F820
:1034D000047FAF4216D0B142F9D1283321460434DB
:1034E0000E68013608D10D600130106000240748D5
:1034F000FFF7C8FF2046F8BD9C42EFD1F4E76FF01C
:103500000104F4E74FF0FF34F1E700BFBC280008E6
:10351000C8280008C42800087FB5254D0A9E044627
:1035200040F8045B0B9DCDE90265099D0195089D5E
:10353000009500F075F900250C9BC4F8DC3131468C
:10354000C4F8D860C4F8E85184F8EC512046FFF77D
:10355000AFFF0021C4F8D4000020C4E944014FF4B7
:1035600000314FF0FF33C4F8E01103200221C4E919
:1035700038010122C4E93D33C4F81831C4F8E830F9
:103580003521C4F8FC3020464FF48073C4F86051F4
:10359000C4F8282184F8545184F8E55184F8E651A0
:1035A000C4F8EC1084F8F020A4F8003104B070BD29
:1035B000BCF5001010B510480C46FFF763FF0F4B29
:1035C0001B6803F128011A4604331068A0420AD18F
:1035D0004FF0FF3313600A4A1368002B01DD013BF3
:1035E0001360002403E08B42EDD14FF0FF3402481A
:1035F000FFF748FF204610BDBC280008C42800087B
:10360000C828000870B590F8EC5188B0044625B978
:10361000C0F8E851284608B070BDD0F8E861013E16
:10362000C0F8E861FEB900220023CDE90623CDE908
:10363000022304964FF0FF3300964FF0FF3204212F
:10364000FFF73EF8D4F8D43084F8EC6100280CBFC2
:1036500000256FF47A65002BDCD1D4F8D810204611
:10366000FFF7A8FFD6E70025D4E7000010B5034B0D
:1036700003600446FFF7C6FF204610BDBCF50010EE
:1036800010B50446FFF7F2FF20464FF4F87102F040
:10369000B3FB204610BD000008B5282002F098FBBF
:1036A0004FF0FF31031F00F1240243F8041F93423F
:1036B000FBD1014B186008BDC42800080368012233
:1036C0001B6900211847036800221B69114618472F
:1036D0006FF01500704703F06FBA03F07DBA03F086
:1036E0007EBA03F07FBA000038B505460A48FFF7F6
:1036F000C9FE284603F008FA044650B9284603F0EC
:1037000068FA02F065FBE8600348FFF7BBFE20465D
:1037100038BD4FF0FF34F7E7CC28000838B5054630
:103720000948FFF7AFFE284603F0FDF9041EE868DC
:1037300018BF0124644208B102F060FB0248FFF7A1
:10374000A1FE204638BD00BFCC28000873B50A4E44
:103750000D4604463046CDE90032FFF793FE009B4C
:1037600001992A46204603F0EBF904463046FFF75C
:1037700089FE204602B070BDCC28000870470000CA
:10378000084908B50B4653F8042B1AB90A680AB958
:103790000B6008BD9A42FCD0034904488B2201F01B
:1037A00003FE00BFDC2800086CF500108EF5001049
:1037B00010B5D0F8A430012B86B0044604D90020FF
:1037C00084F8A80006B010BDDBB20493D0F8A03096
:1037D0000393D0F8C0300293D0F8BC300193D0F8F6
:1037E000B8300093D0E92C23D0F8AC10043003F0AB
:1037F00032FB38B9012384F8A830044B1C6094F8DC
:10380000A800DFE7002384F8A830F8E7E4280008E0
:1038100010B5D021044602F0EFFA204610BD00009A
:10382000F8B51D461B4B04460F4640F8043B1646B0
:10383000002170220BF03AFA4FF40032069B6267C7
:10384000099AC4F8B830C4F8A420079B124AC4F8F7
:10385000BC30C4F8A020089B104AC4F8C030002334
:10386000C4E92B76C4E93223C4F8B450C4F8C43098
:10387000A4F87830C4F89C3084F8A8302046FFF7CC
:1038800097FF20B906490748432201F08DFD2046E5
:10389000F8BD00BF44F6001040420F00B1370010E1
:1038A0000CF600102EF600102DE9F0479DF8207060
:1038B0009DF82460022F044689469246984624D8F3
:1038C000134BDB5D0BB3B6FBF3F503FB156515F08E
:1038D000FF051AD103689B6898479DF8283084F843
:1038E00079300B9BC4F89C30236884F878602046BC
:1038F000DB6884F8749084F875A084F8768084F886
:10390000777098472846BDE8F0874FF0FF30FAE718
:1039100036F6001038B50A4D2A68824204460CD0AB
:10392000D0F8CC20D4F8C830511000EB6200D20798
:1039300044BF6258D35898472C6094F8A80038BD0B
:10394000E428000838B590F8A83004460D46DBB1ED
:1039500003689B6898470E4BC4F8A0501B68A342AD
:103960000DD12946201D03F091FA003818BF01201F
:10397000454223682046DB689847284638BD2046E4
:10398000FFF7C8FF0025F4E74FF0FF35F5E700BF6C
:10399000E4280008F8B504460F4616460021202208
:1039A0007C301D460BF082F994F8743084F87C303A
:1039B000791C14BF0023012384F87E3094F87530FD
:1039C00018BF84F87D7084F88030721C94F87630CB
:1039D00084F8813014BF0023012384F8883094F8E0
:1039E000773084F88C3094F8783018BFC4F884604D
:1039F00084F88D306B1C14BF0023012384F89430AD
:103A0000D4F89C3084F8983094F8793018BFC4F812
:103A1000905084F89930F8BDF7B5009390F8A8302D
:103A20000191DDE908740546164643B324B31FB37C
:103A3000236823B303689B6898472846FFF76AFF0B
:103A4000DDE90021A8B133462846FFF7A3FF23464E
:103A50003A4605F17C01281D03F048FA041E18BF00
:103A6000012464422B682846DB689847204603B04F
:103A7000F0BD4FF0FF34F5E76FF00104F6E74FF0CB
:103A8000FF34F3E7F7B5009390F8A8300191DDE932
:103A900008740546164643B324B31FB3236823B303
:103AA00003689B6898472846FFF734FFDDE900214B
:103AB000A8B133462846FFF76DFF23463A4605F185
:103AC0007C01281D03F0E4F9041E18BF01246442A0
:103AD0002B682846DB689847204603B0F0BD4FF0BE
:103AE000FF34F5E76FF00104F6E74FF0FF34F3E73A
:103AF00030B51D4690F8A83085B0CDE902210446C6
:103B000033B303689B6898472046FFF703FFDDE95E
:103B10000221D0B14FF0FF332046FFF73BFF0A9B55
:103B20000193099B00932A46089B04F17C01201D08
:103B300003F0C3F9003818BF01204542236820462E
:103B4000DB689847284605B030BD4FF0FF35F5E7F4
:103B50004FF0FF35F6E7000010B507490422044690
:103B60000BF06EF828B96379012B02D1A0790130EE
:103B700010BD4FF0FF30FBE754F600108378012BA7
:103B80001AD14268130EFF2B03D103781BB1812B8E
:103B90000BD00020704722F07F420A60C27892006A
:103BA000502AA8BF50224A60F3E722F07F428A6180
:103BB000C3789B00CB61ECE74FF0FF3070472829BA
:103BC00081BF90F8280003110120984098BF4FF45E
:103BD000807070474B681C2BF0B524D9012301F18C
:103BE000B00401F1C0064FF0FF379C4644F8047B57
:103BF000027F0CFA02F2012AE2600CD9457F44F8F8
:103C0000045C8D6DAA4200D305B98A6591F84C20F9
:103C10001A4381F84C205B00B442DBB200F1020091
:103C2000E4D1002006E040780861FF284FF0FF3023
:103C300018BF0020F0BDF0B504460D46D2E90201E0
:103C4000A94208BFA04215D3136A9BB1012B0FD024
:103C5000981E0A3302EBC30200280BDB72E80267EE
:103C6000AF4208BFA64201D20130F0BD0138F3E7F0
:103C70000020FAE74FF0FF30F7E72DE9F74F0C9DF2
:103C800000910933844605F1A80B05EBC30303201B
:103C900000214FF0080E1446D5179CF800A01AEA30
:103CA0000E0F16D05BF8202000998A420CDA596872
:103CB000019119680E1B01994FEAE27961EB050742
:103CC000B94508BFB24209D32AEA0E0A8CF800A00F
:103CD000014601384FEA5E0EDFD2084603B0BDE868
:103CE000F08F43680133DB080020C1E902307047E0
:103CF00090F90700C0177047C16810B529B9044989
:103D0000044840F2F31201F04FFBBDE810400847B1
:103D100042F5001060F500102DE9F0478AB004AEBE
:103D200086E80F004FF0000A08AB08240093CDE9A5
:103D3000024A002200233046FFF7DEFF50451FDB1A
:103D400008A8FFF709FF051E1CDB5746A046D14611
:103D5000AF421BD008AB0093CDE9028922465346FF
:103D60003046FFF7C9FF002812DB129908A8FFF7B9
:103D700005FF002807DB08344AF1000A0137E7E7AE
:103D80004FF0FF3528460AB0BDE8F0870020FAE77B
:103D90004FF0FF30F7E72DE9F04788B004AF109DF2
:103DA00087E80F00D5E90232AC696B6213F1FF338B
:103DB00042F1FF32C5E91832002C5ED0EC69002CCC
:103DC0005BD0204602F004F8013C06460246002380
:103DD000002C03DB02F8013B013CF9E7EA6900969D
:103DE000CDE902233846AA690023FFF785FF0028A2
:103DF0004DDB337803F00303032B02D07378002BE1
:103E000045D0B7787B1C0A2B2B6240DC6FF04C0A44
:103E1000341D05F1240E05F14C0005F1600C0F2155
:103E20000023AAEB050A226814F8048B22F0FF0293
:103E300008F00F0802F580724EF8042B00F8018B91
:103E4000013A13440AEB00024FEAE37901EA080160
:103E500097429846ECE8028903F10103E3DC002372
:103E6000AB65012212EA01040BD03033002455F86F
:103E70002330AB65304601F0C1FF204608B0BDE8F5
:103E8000F08701335200042BD2B2EBD1F2E74FF0AE
:103E9000FF34EFE770B5D0E90213D0E908250446F6
:103EA000521845EB030300F0B5F8636B23B104F13E
:103EB0002800BDE87040184770BD000038B50446C2
:103EC000154600F091F8064B236000220023C4E958
:103ED00008230023636384F83850204638BD00BFB0
:103EE00064F6001013B5044601A801F0C7F8204697
:103EF00000F09AF8636B23B194F838300BB101F0FD
:103F000017FD0023636301A801F0C0F802B010BDE3
:103F100070B5044615461E4600F086F8C4E90856FA
:103F2000A06901F076F82A1846EB01032046BDE8A7
:103F3000704000F06FB884B073B5054607AC01A8B7
:103F400084E80E0001F09AF86B6B23B995F83830CD
:103F50000BB101F0D7FC94E80F0005F1280686E8C4
:103F60000F00DDE90C232846FFF7D2FF01A801F07E
:103F70008DF802B0BDE8704004B0704730B5436BB7
:103F800085B00446B3B100F128030FCB6D4685E838
:103F90000F000023636394F838300BB101F0C8FCC4
:103FA000039B2BB90449054840F2F31201F0FCF9D8
:103FB0002846984705B030BD42F5001060F5001066
:103FC00010B5044601F04CF8012201462046FFF7E7
:103FD00075FF024B2360204610BD00BF70F6001035
:103FE00003681B681847000010B50446074B2360A0
:103FF00000220023C4E9022300230846A161C4E98A
:104000000433034900F07CFF204610BD7CF600100D
:10401000E13F001007B5009000F10801806900F051
:10402000AEFF03B05DF804FB00F10801806900F009
:10403000D5BF0020704700290CBF6FF0180000208A
:104040007047012070476FF0150070476FF0150042
:10405000704784B001A880E80E0004B070470000EB
:104060000A4619B1024B00211B681847704700BF70
:10407000E422000810B4074C246894F829401F2C4F
:1040800003D85DF8044B06F0CBB85DF8044B06F09E
:10409000B1BA00BF9C75000810B4074C246894F8AE
:1040A00029401F2C03D85DF8044B06F073B95DF866
:1040B000044B06F037BB00BF9C75000838B50D46B1
:1040C000044600B901BE2A46211D204603F0A4F98A
:1040D00000B9E571B0FA80F0400938BD00B901BE01
:1040E0000379052B04D1C279011D006803F0C8B91A
:1040F0007047000037B50C460546A8B1A1B10321B1
:104100006846FFF7DBFF60B10A4A0098126892F830
:1041100029201F2AA3B24FF00002294606D805F035
:104120007DFF6846FFF7DAFF03B030BD06F01CF8EC
:10413000F7E700BF9C75000810B5044640B139B1DF
:10414000FFF7D8FF20460321BDE81040FFF7B6BFB8
:1041500010BD38B50D46044640B139B1FFF7BEFF7A
:1041600029462046BDE83840FFF7C4BF38BD0000EF
:1041700038B505460C4611B94FF0FF3038BD002B5D
:10418000FAD02868FFF776FF0028F5D1084B286899
:104190001B6893F829301F2B214606D806F0E6F855
:1041A000003818BF01204042E8E706F0A7FAF7E719
:1041B0009C75000838B551B14AB1CC683CB1006873
:1041C000FFF76AFF003818BF0120404238BD4FF0AA
:1041D000FF30FBE710B599B192B1CB6883B10A4BC0
:1041E00000681B6893F829301F2B06D806F00CF9DD
:1041F000003818BF0120404210BD06F02FFBF7E742
:104200004FF0FF30F8E700BF9C7500089821FFF7DA
:1042100093BF10B19821FFF79CBF7047002910B4DD
:104220005DF8044B00F138030CBF0222012200F1BB
:104230000801FFF79DBF10B4134632B10A465DF87E
:10424000044B00F10801FFF7B5BF10465DF8044BC1
:1042500070470A4600F10801FFF7BCBFFFF7DEBF59
:10426000FFF7E9BFFFF7F5BF112070472DE9F04FC9
:104270008BB082460D461022002106A80AF016FDDA
:10428000BAF1000F00F0B180002D00F0AE8006A85A
:10429000FFF72AFA0446002840F0A98055485649FD
:1042A00001445648A1EB0008414606A8FFF713FA5F
:1042B00000218146024618F1FF3041F1FF312346CB
:1042C0000AF06AFF09FB00900246002306A8CDE928
:1042D0000423FFF702FA804606A8FFF700FADAE99E
:1042E000002318EB00084FF00009CDE9022349F143
:1042F000000913432BD1D5E90023134304D106A8A9
:10430000FFF7EDF9C5E90004D5E90017B8EB0105A1
:1043100069EB0707CAE90057294606A8FFF7DBF94A
:10432000394606460246002328460AF035FF704308
:10433000DAE9006700218F4208BF86422CD006A828
:10434000FFF7ECF92E4C20460BB0BDE8F08F029938
:1043500006A8FFF7C0F9DAE900238346CDE9002378
:1043600002462346DDE902010AF016FFDDE90023DB
:10437000002100FB0BF08B4208BF8242DFD1D5E960
:10438000002352EA030115D1009BB8EB0302019B05
:1043900069EB0303C5E9002306A8FFF7BFF9DAE9D3
:1043A0000023DDE904018B42164B08BF824238BF6F
:1043B0001C46C8E700998E18019943EB0101894515
:1043C00008BFB0450F46BAD3711E06A8FFF783F9A0
:1043D0000546024616F1FF30234647F1FF310AF049
:1043E000DBFE002105FB0050A5E7074CABE7074CBF
:1043F000A9E700BF140E011000280008E022000801
:104400000501FF800B01FF800101FF801D01FF807E
:1044100030B50D4A85B00023CDE9002305460C4692
:104420004FF40032002302A96846CDE90223FFF7CA
:104430001DFF30B9009A029B2A601344236005B027
:1044400030BD0248FBE700BF00001E100F01FF80D7
:104450002DE9F04F91B01446804610220D4603A876
:1044600000210DF11C091E460AF020FC102200213B
:1044700048460AF01BFC002C54D003A8FFF734F97F
:104480000746002851D1414603A8FFF724F908F157
:104490008F039D4208D2DFF8FC8003A8FFF73EF9A6
:1044A000404611B0BDE8F08F03A8FFF716F9824629
:1044B00003A8FFF714F950448542ECD80135A5EB69
:1044C00008054FEA550ABA4508EB070104D903A8C5
:1044D000FFF701F90744F6E7CDE90787ED1BDFF8A1
:1044E000B8A0DFF8B8B00A950991002503A8FFF736
:1044F000F8F859F835800746082308F1400201A969
:1045000003A8FFF723F938B901AB13F8012B974241
:104510000ED101300828F8D10DB90125E6E7DFF802
:104520008080BAE7DFF86C80BAE7DFF87880B7E719
:104530001A9BBDF806700BB11A9B1F60BE42EBD3ED
:1045400042463B46214603A8FFF700F98046002873
:10455000E2D15046FEF796FF20224FF0FF33CDE91F
:104560000C230BA80123ADF83C30CDF82CB0CDF8CE
:10457000388002F00BFA3946204602F065FA02F064
:1045800097FA07465046FEF77DFF029BBB4284D058
:10459000C2E700BF0101FF80D4280008B71DC10495
:1045A0000701FF800F01FF8030B5134D2B78BFF35B
:1045B0005B8F13F0010487B01AD1284601F02EFA60
:1045C000B0B10E4B0E4A0F490F48CDE903430F4BD4
:1045D000029305330193043B00930133FEF79CFFE4
:1045E000284601F039FA0A4A0A49074801F008FA50
:1045F000054807B030BD00BFE828000880F0FA0287
:1046000005000B0006000B00F028000802000B005C
:10461000E02200086D36001010B4D0E901320168C4
:10462000541001EB6200D20748BF0A595DF8044BF1
:1046300048BFD358184738B504460D4600F0A6FFCA
:1046400094F857302BB994F8563013B994F8543085
:104650007BB104F10800FFF745FC002384F85530D6
:10466000A4F856300DB12046A847BDE8384000F008
:10467000A3BFA36CDB689847F7E710B5044600F0CA
:1046800085FFA36C9B689847BDE8104000F094BF7D
:1046900010B5044600F07AFFA36CDB689847BDE8CC
:1046A000104000F089BF10B5044600F06FFF0123F1
:1046B00084F85730A36C5B699847BDE8104000F060
:1046C0007BBF13B5044600F061FFA36CDB6998471C
:1046D000019000F071FF019802B010BD38B504469A
:1046E00000F051FF20B914491448C42200F05CFEC8
:1046F00004F10800FFF7F6FB0023C4E9173384F840
:104700005530A4F856306366A36C012584F85850E0
:10471000DB69984743681F2B9ABF9D4005F1FF3521
:104720004FF0FF35A566026802F5742303F23F23BC
:10473000B3FBF2F3E36638BD80F60010A8F6001074
:10474000F8B50E460446083017461D46FFF738FCFC
:104750003368A364069B013323650135002384F885
:104760005430E56400F012FF7368636020462760F0
:10477000FFF7B4FF00F020FF2046F8BD10B5044657
:1047800000F004FF2046FFF7A9FFA36C1B689847C1
:10479000BDE8104000F010BF10B5044600F0F6FE72
:1047A0002046FFF79BFFA36C9B699847BDE810402C
:1047B00000F002BF13B50446019100F0E4FE019938
:1047C00020B90A490A48F22200F0EEFD94F856306A
:1047D00043B1D4E91720904204D000F067FA031ED9
:1047E00018BF0123184602B010BD00BF80F60010AC
:1047F000A8F6001038B5044600F0C8FEA36C5B684C
:10480000984794F8543005463BB901462046FFF7D7
:10481000D1FF10B1A36C5B69984700F0CDFE28462C
:1048200038BD000038B505460C4600F0ACFE20B996
:1048300004490548FE2200F0B7FDE86E60430430ED
:1048400038BD00BF80F60010A8F6001070B58CB01F
:1048500004460D4600F097FE28B9344934484FF419
:10486000837200F0A1FD94F85830A16E43B9636ED5
:10487000E26CEB1A0B40934224BF012384F85830BA
:10488000E06D94F85830451B0D40216DEBB994F85C
:104890005560C6B9274B0793A942274B049428BFFC
:1048A00029462046CDE90536FFF7BCFFCDE90206D3
:1048B000079B009304AB0ECB04F10800FFF73BFB12
:1048C000012384F855300CB070BD8D4219D3A36C10
:1048D0001B699847A36C5B689847002384F858309D
:1048E000E36D6066181AA36E1840854205D2A36C6A
:1048F0005B690CB0BDE870401847236D8342E2D974
:104900000546216D0B4B0B93A9420B4B09934FF0BE
:10491000000628BF2946204608940A96FFF782FF22
:104920000B9B0093CDE9020608ABC4E780F60010AC
:10493000A8F60010194600108149001038B5044649
:104940000D4600F023FEA36C5B689847012384F8B2
:10495000563094F85430C4E91750014633B9204614
:10496000FFF774FFBDE8384000F026BEA36C284670
:104970001B699847236E6366002384F85830F1E77B
:1049800013B5044600F002FE002384F85530A36CF2
:104990005B6898470146D4E91720904207D1A36C81
:1049A0005B69984702B0BDE8104000F005BE019178
:1049B00000F07CF901990028F1D12046FFF746FF6D
:1049C000F0E70000EFF3108372B6054A117831B9B1
:1049D0000449DB4303F001030B700123137070479C
:1049E000E12A0008E02A000808B5EFF31083DB4352
:1049F00013F0010304D006490648362200F0D4FC27
:104A0000054A1370054B1B7803B162B608BD00BFA1
:104A1000C8F60010F2F60010E12A0008E02A0008AB
:104A2000014B1878704700BFE12A000810B50379E0
:104A3000E3B10068431C04D10D490E483F2200F049
:104A4000B3FC0D4B1B68C0F307429B690E2AD8BF0D
:104A500003EBC21310F0F80FC4B200D001BE012264
:104A6000A24009B95A6010BD9A60FCE78160FAE77C
:104A70000CF7001048F700109C75000870B50E4642
:104A80000446154602F004F901360DD029462046A9
:104A9000FFF7CCFF2046012102F01CF92046082137
:104AA000BDE8704002F012B970BD0022FFF7E6BF0A
:104AB000014800F051B800BF68F70010014B1868BA
:104AC00000F034B8E8220008014B1868FFF7F9BD80
:104AD000282B0008014B1868FFF75EBE282B000842
:104AE000014B1868FFF7DFBD282B0008024B014679
:104AF0001868FFF723BF00BF282B0008014B186878
:104B0000FFF7C6BD282B0008014B1868FFF7B5BD9D
:104B1000282B0008014B1868FFF76CBE282B0008F3
:104B2000014B1868FFF72ABE282B000810B5044671
:104B300000F02CFD064B1B780BB9FFF7B9FF054BB6
:104B400021461868FFF777FDBDE8104000F034BD3E
:104B5000A02B0008282B00087FB50B4D039000F018
:104B600015FD2B78094C03994BB9094E094A0323CB
:104B700000933046FFF7E4FD012326602B7000F020
:104B80001BFD206804B070BDA02B0008282B000876
:104B9000302B000894F700102DE9F74F446894F883
:104BA0003A100646002955D101684968884771685E
:104BB000096A814205464DD0206AE168A6682562EF
:104BC000281A0140384886428C464FF0000E39D0F2
:104BD00094F83BB0D4E90A5A0027A1FB0001BBF1CD
:104BE000000F46D0CBF1200801FA08F820FA0BFCA0
:104BF000ABF1200E21FA0EFE4CEA080C4CEA0E0C2A
:104C00002D1821FA0BFEABF120094AEB010ACBF17A
:104C100020080EFA0BF10CFA09F941EA09012CFA05
:104C200008F80CFA0BF02B1A41EA080100936AEB22
:104C300001030193DDE90023BB4208BFB2420CD25D
:104C4000C4E90A23D4E90C0110EB0C0041EB0E017E
:104C5000C4E90C0103B0BDE8F08F009B1CF1010C0E
:104C60004EF1000E9A1B019B63EB0703C4E90A2374
:104C7000E8E732463B460AF08FFA12EB050843EBB1
:104C80000A09B94508BFB04584468E4602D2C4E938
:104C90000A89D7E710F1010C41F1000EB8EB0602CA
:104CA00069EB0703E2E700BF40420F00824206D9EA
:104CB0008A420BD9884294BF002001207047884265
:104CC00006D98A428CBF002001207047012070471E
:104CD000002070472DE9F74FD0F8048098F83A305B
:104CE0000446002B78D198F83930002B74D1FFF7A7
:104CF00053FF65686B68002B71D0D5E90C01D3E9CF
:104D00000023994208BF904205D323685B6903B032
:104D1000BDE8F04F1847161A63EB0107D5E90623E3
:104D2000BB4208BFB242D5F8109006D3AA68334BF5
:104D30009A4211D1B14528BFB1462A6AD8F820302D
:104D40009144EA6809EA0202934235D12C492D4880
:104D500040F21B1200F028FB95F83B30EBB1A3F1B9
:104D6000200CC3F1200226FA02F206FA03F007FA39
:104D700003F106FA0CFC244E41EA0C0111438019A0
:104D80001E4A4FF000064FF0000346EB01010AF007
:104D900003FA814528BF8146CFE71B48A2FB06AB3B
:104DA00002FB07BB1AEB00004FF00001134A4FF063
:104DB00000034BEB0101EAE72368019210461B69EF
:104DC000984723685B689847019A0146D8F8200005
:104DD000FFF76CFF002898D103B0BDE8F08FD8F83A
:104DE0001030D8F82000D8F80C20184423681B692C
:104DF000104003B0BDE8F04F184700BF40420F001D
:104E0000B8F70010D8F700103F420F002DE9F04F1F
:104E1000436893F8382085B00546002A63D193F89B
:104E20003A30002B5FD103681B6898472B68DB6919
:104E3000984703682BB92D492D4800931A4600F076
:104E4000C1FC1F21012202FA01F4A3425FFA81FA98
:104E500002D00139F7D18A464668321F1C2A05D98B
:104E600000232449244800931A46E8E71C4614F11D
:104E7000FF384FF0000321494FF0070743F1FF3996
:104E80009740C1FB07892246404649460AF084F90B
:104E90006B682A6803934FF00008C3E900885268E2
:104EA000894683469047039B0122186202FA06F660
:104EB0006B6800210020013EC3E90A01C3E90C012F
:104EC000C3E903672846C3E906B99C6083F83BA0A1
:104ED0001A8783F83A80FFF75FFE284605B0BDE8E1
:104EE000F04FFFF7F7BE05B0BDE8F08FFCF70010FC
:104EF0000E01048015F800100501048040420F00E7
:104F000038B505460C46FFF781FF00F03FFB6B68A4
:104F10001C60BDE8384000F04FBB70B5044600F09F
:104F200035FB2368DB689847636893F83A201AB129
:104F3000BDE8704000F040BB012283F8392063686F
:104F40005B68A3B12046FFF727FE65686E68D5E968
:104F50000C01D6E90023994208BF904207D3F368B9
:104F60006B602B68002BEAD0B0689847E7E763686E
:104F7000002283F839202046FFF7ACFED8E72DE960
:104F8000F7430A9D01900C469046994600F0FEFAC0
:104F90000198FFF701FE0198A5604268C4E9008905
:104FA000536800212BB9E36061B95460FFF792FEAA
:104FB0000FE0D3E90067B94508BFB045F3D3194600
:104FC000DB68EFE7D2E90C234B4508BF4245CC60D4
:104FD000ECD203B0BDE8F04300F0EEBA38B50546B8
:104FE0000C4600F0D3FA6A685368A34209D1DB6823
:104FF00053602846FFF76EFEBDE8384000F0DCBA8B
:105000001346002BF8D0DA68A242F9D1E268DA60E0
:10501000F2E738B50446FFF7F9FE00F0B7FA20468C
:10502000FFF7BAFD6368D3E90C4500F0C5FA2046E6
:10503000294638BD08B5FFF7ECFF08BD024B00223A
:105040001A7002F06BB900BF4C74000808B502F08A
:10505000ADF8024B01221A7008BD00BF4C74000865
:105060000048704754F80010024B1B680BB102480F
:1050700018477047EC22000854F8001007B501905B
:1050800000F084FA019803B05DF804FB07B50190C5
:1050900000F092FA019803B05DF804FB10B50446E5
:1050A000FEF7A2FF084B2360A069FFF7B2FF0022C2
:1050B0000023C4E90C230023C4E90801C4E90A0160
:1050C000A363A387204610BDD8F8001038B590F828
:1050D0003C50044625B10A490A488E2200F064F982
:1050E000FEF7A2FF94F83D3084F8395084F83A5026
:1050F0002BB184F83D50BDE8384000F019BC38BDF4
:1051000080F80010A7F8001010B5044601F1300037
:1051100000F076F9C4E90001204610BDD0E90C3258
:10512000013342F10002C0E90C32D0E90A3213F532
:105130007A7342F10002C0E90A327047D0E90A23CB
:1051400012F57A7243F10003FEF764BFF8B50D461D
:1051500004468869FFF75DFFD5E90A32C61A61EB9C
:105160000207002F08BFB6F57A7F05D20022002380
:10517000C4E900232046F8BD002F08BFB6F5FA6F3A
:1051800001D20122F3E7002E77F101034FF47A7286
:105190004FF000033046B4BF0021394609F0FCFF50
:1051A000C4E90001E6E7000091F83C30F7B5054698
:1051B0000C4613B991F8396026B112491248E02221
:1051C00000F0F2F86846FFF7C1FFDDE900324FF466
:1051D0007A7184F83860A3FB016701FB0277D4E998
:1051E0000A10891947EB0000C4E90A10D4E90C1031
:1051F0005B1840EB02022846C4E90C32C5E90032D4
:1052000003B0F0BD80F80010B1F80010F0B51F46F3
:1052100090F83C3085B00446164623B12149224817
:10522000582200F0C1F890F8395065B9014602A83B
:10523000FFF7BAFFDDE90223BB4208BFB24204D345
:10524000012384F83A3005B0F0BD214602A8FFF7EB
:105250005BFF4FF47A73A6FB030103FB0711D4E94C
:105260000823821894F83D0084F83A5041EB030378
:10527000012184F8391060B9A069006890F8200015
:1052800038B984F83D10CDE9002300F03BFBDDE99F
:1052900000230021204684F83B1005B0BDE8F04013
:1052A000FEF7B8BE80F80010A7F80010024B4FF0D0
:1052B00080625A60704700BF00ED00E090F839301E
:1052C00010B504464BB1002380F8393090F83B30DC
:1052D00013B9012380F83A3010BD90F83C30002B10
:1052E000FAD090F83830013380F83830FFF7DEFF1D
:1052F0002046FFF713FF2046FFF720FFECE709F0F9
:105300002DBD09F0DBBC0000F0B572B6224A234F78
:10531000002313604FF0E0224FF0FF36516801F098
:105320000F0101311D469A0002F1604202F561420F
:105330004FEAC30CC2F88060C2F88061002202EB21
:105340000C043C440132082A84F80053F7D101339D
:105350009942E8DC124B4FF020625A6040F2FA5258
:105360009860DA6000221D6111469C1801320C2AF7
:105370002176FAD14FF0FF3259629A62094ADA6215
:105380001F221A63D0E90031002282F314889D465F
:1053900082F310880847F0BD10E000E000E100E073
:1053A00000ED00E0020000C007B50B460092014688
:1053B0000022014800F006FA4401FF800346012262
:1053C000D3E84F0FC3E8412FC0B20029F8D170478E
:1053D000D0E85F3F5B18C0E8523F002AF8D198B28E
:1053E0007047D0E85F3F5B1AC0E8523F002AF8D10F
:1053F00098B27047D0E84F3FC0E8421FD8B270471C
:1054000038B5044600F0C2F8D4E9004500F0D4F8FD
:105410002046294638BD000010B50379E3B1006885
:10542000431C04D10D490E483F22FFF7BDFF0D4B31
:105430001B68C0F307429B690E2AD8BF03EBC21357
:1054400010F0F80FC4B200D001BE0122A24009B989
:105450005A6010BD9A60FCE78160FAE70CF7001013
:1054600048F700109C7500081FB500F08FF814492C
:10547000144D01A8FFF719FB0424012101A8FFF72F
:10548000CBFF284600F0EFFC002101A8FFF7C4FF86
:10549000284600F0E8FC013CEFD10B4E042401212A
:1054A00001A8FFF7B9FF304600F0DDFC002101A89C
:1054B000FFF7B2FF304600F0D6FC013CEFD1DBE74E
:1054C00007000D00F0490200801A060073B50022A3
:1054D00001460446022000F02FFB0D2600F056F88E
:1054E0000022254614F8013B1BB900F065F802B014
:1054F00070BD0A2B09D10D2A07D001220DF1070139
:1055000002208DF8076000F017FB012229460220D7
:1055100000F012FB14F8012CE3E7000000B5A3B083
:1055200002460B4601A8842100F088FE832806D994
:10553000074B1A681B79CDF883208DF88730002837
:1055400002DD01A8FFF7C2FF23B05DF804FB00BF36
:10555000DCF800100FB407B504A951F8040B019151
:10556000FFF7DCFF03B05DF804EB04B07047EFF326
:105570001080C04300F001007047EFF30580003851
:1055800018BF01207047FFF74BBA000008B5FFF7BE
:1055900019FA064A1368591C04D1054905483F22E7
:1055A000FFF702FF0133136008BD00BFE82B0008BE
:1055B000E1F800100BF90010044A136823B1013B15
:1055C00013600BB9FFF710BA704700BFE82B000853
:1055D00008B50B48FFF7F2FE28B1FFF7D7FFBFF37E
:1055E0004F8F20BFFDE7FFF7C8FF08B1FFF73CFF73
:1055F000FFF7BDFF0028F9D0012000F0C5FB00BF78
:10560000282C00082DE9F0412E4C0E462168C1F3EC
:105610004173032B0CBF4D428DB2C1F3074380464B
:10562000174629482A46FFF795FF6FF498731D44E3
:10563000132D0FD8DFE805F00A2D3033363C393F03
:105640000E0E0E0E0E0E0E0E0E0E0E42A1681F480E
:10565000FFF780FF4046FFF739FF61681C48FFF7FE
:1056600079FF4EB11B48FFF731FF3046FFF72EFFA1
:1056700019483946FFF76EFFA1681848FFF76AFF1F
:1056800021681748FFF766FFBDE8F0411548FFF7AE
:1056900061BFA1681448DBE7A1681448D8E7A16896
:1056A0001348D5E7A1681348D2E7A1681248CFE7AD
:1056B000A1681248CCE7A1681148C9E71148FFF773
:1056C00049FFC7E72C2C00083CF900108DF90010A9
:1056D00035FA001046FA00104EFA001052FA001087
:1056E00066FA0010BBFA0010A3F90010B3F900101D
:1056F000C2F90010D5F90010E9F90010FDF9001009
:105700000CFA001022FA001070470000F0B5254D89
:105710008FB035EA200528BF05460E461746002102
:10572000302202A809F0C2FA1F4B01952B44012B2D
:1057300001AC039605D91D4B9D4202D0033B9D420F
:1057400029D1F36B0293736B0893FFF71FFF184A7D
:1057500013680133012B136009D126460FCE154D76
:105760000FC50FCE0FC50FCE0FC533682B600FCC02
:10577000114D0FC50FCC0FC50FCC0FC523682B6083
:105780000E4B1B68A5F1300043B19847FFF714FF9B
:1057900000200FB0F0BD02970894D6E7FFF7B4FFE2
:1057A000F4E700BF0101FF80C2FE007F4001FF80DF
:1057B000EC2B0008F42B00082C2C0008F02B000820
:1057C0000020704780B506460C460A480121F04685
:1057D00017461D46FFF70EFE48B942463946304689
:1057E000FFF794FF029A29462046FFF70BFFFFF7C9
:1057F000EFFE00BF4D74000838B5064C23683BB976
:10580000FFF756F9044D01462846FFF747FC25608F
:10581000206838BDA02C0008602C000808B58368FB
:1058200023B9054B1B6893F83A0008BDC068984738
:105830000028F6D0F9E700BFA02C0008F7B5194DF5
:1058400004464FF0FF366FF000472046FFF7E6FFB3
:1058500030BBD4E90023BB4208BFB24202D0286863
:10586000FFF7D4FC01A8FFF709FC2046FFF7D6FF9D
:1058700098B9D4E90023BB4208BFB24207D100F077
:105880007BF801A8FFF702FCBFF36F8FDDE72B6801
:1058900093F83930002BF2D1F3E701A8FFF7F6FBBC
:1058A00003B0F0BDA02C000870B50C4686B01646BB
:1058B000054620B909B11046884706B070BD431CA3
:1058C00018D0FFF799FF01466846FFF76DFCDDE948
:1058D0000023521943F10003CDE90223CDE9044628
:1058E000FFF78AFF02A8FFF7A9FF054B1868FFF72B
:1058F000EDFBE2E74FF0FF326FF00043ECE700BF53
:10590000A02C000813B5074C01212046FFF760FDCD
:10591000034628B90090228803490448FFF752FF44
:1059200002B010BDA42C0008D5FA00102301048099
:1059300013B5094C01212046FFF753FD4FF6FF73C5
:10594000984206D100232288044905480093FFF7B6
:1059500039FF02B010BD00BFA42C0008F7FA0010F8
:1059600024010480034B188880B2B0FA80F040090B
:10597000704700BFA42C000808B5FFF707FEFFF72B
:10598000F1FF28B101F09DFBBDE80840FFF714BE10
:1059900001F094FBF8E71D2070476FF01500704789
:1059A00001207047002070471046704700230B709D
:1059B00001207047704710B5044609F039F92046B8
:1059C00010BD002070470020704708B5012000F08E
:1059D000DBF90000074A084913681844884289BF68
:1059E000064B10600C224FF0FF308CBF1A60184637
:1059F000704700BFF023000800E80F08AC750008EE
:105A000001207047012070477047704708B5FFF7C5
:105A1000FBFF08BD08B5FFF7F8FF08BD08B5037820
:105A200003F00303012B10D0037803F00302012AD3
:105A30000BD02AB10649074840F28E62FFF7B4FC4A
:105A400043F002030370012008BD0020FCE700BF03
:105A500015FB001041FB001008B5037803F00302AA
:105A6000022A05D00549064840F29762FFF79CFCE0
:105A700023F0030343F00103037008BD15FB00107E
:105A80005FFB00103F2870B5044628DC154D55F823
:105A900020305A1C13D1022811DCFFF794FF034673
:105AA00058B92046FFF78DFF034630B90E4E3378C4
:105AB000BFF35B8FDB0704D50C4B45F82430184649
:105AC00070BD3046FFF7AAFF0028F5D03046FFF73B
:105AD000C3FF074A07490548FFF792FFECE7002399
:105AE000EDE700BFF0220008A82C0008F42300080E
:105AF000E0220008B559001038B50546FFF7C2FF8F
:105B00000B4B002443F8254030B908F0EDFD092384
:105B100003604FF0FF3038BD03685B699847051E8E
:105B200004DA08F0E1FD6D420560F2E72046F2E795
:105B3000F0220008FFF7E0BF13B5CDE90021FFF721
:105B4000A1FFDDE9002140B908F0CEFD0923036083
:105B50004FF0FF34204602B010BD0368DB68984761
:105B6000041EF7DA08F0C0FD64420460F0E713B5E4
:105B7000CDE90021FFF786FFDDE9002140B908F0FB
:105B8000B3FD092303604FF0FF34204602B010BD7F
:105B900003689B689847041EF7DA08F0A5FD644285
:105BA0000460F0E710B5FFF76DFF044628B908F070
:105BB0009BFD09230360204610BD0368DB699847FD
:105BC000041EF8DA08F090FD644204600024F2E755
:105BD0002DE9F74FB2F1000805460E4609DA08F044
:105BE00083FD162303604FF0FF34204603B0BDE869
:105BF000F08FFFF7D7FF044660B31F4ADFF87CA0A1
:105C0000535D00273C4691464FF00D0BB84521DD12
:105C1000F25D0A2A1BD10D2B019318D0BC420CDA7D
:105C20003A1B31192846FFF787FF0028019BDADB72
:105C30000444A742D9DC09F8053001225146284620
:105C4000FFF77AFF0028CEDBCFD009F805B0F35D6F
:105C50000137DBE7A045C8DDA8EB0402311928466F
:105C6000FFF76AFF0028BEDB24181FBF3619024B5E
:105C700016F8012C5A55B8E7EC2C000896FB0010DA
:105C8000FFF790BF7FB5002A04460D4606DA08F0FC
:105C90002BFD162303604FF0FF3019E00192FFF750
:105CA00081FF019AE8B1114E01220DF10F0120464A
:105CB000FFF75DFF0028EEDB0AD09DF80F300D2BBB
:105CC00008D1325D0A2A3355EED00A232B70012009
:105CD00004B070BD0A2B02D1325D0D2AF3E73355B3
:105CE000F4E729462046FFF742FFF1E7AC2C000815
:105CF00013B5CDE90021FFF7C5FEDDE9002140B96C
:105D000008F0F2FC092303604FF0FF34204602B094
:105D100010BD03681B699847041EF7DA08F0E4FC1D
:105D200064420460F0E7FFF7E3BF10B5FFF7AAFE97
:105D300030B908F0D9FC092303604FF0FF3010BDE3
:105D400003689B699847041E04DA08F0CDFC64429E
:105D50000460F2E70020F2E70A4D08B52B6804461C
:105D6000986808F089FD2B68D86808F085FD012047
:105D7000FFF7DBFF0220FFF7D8FF0CB1FFF774FB42
:105D8000FEE700BF7824000808B5FFF7E5FF38B547
:105D90000D46FFF777FE044630B908F0A5FC09234D
:105DA00003604FF0FF3038BD0368DB699847002877
:105DB00014BF4FF400534FF400436B602368204638
:105DC0009B6A984728610020EDE7FFF7E0BF0000DD
:105DD0001FB5039008F024FF039A034620B90090F2
:105DE00003490448FFF7EEFC05B05DF804FB00BF73
:105DF00098FB00101F01018008F01ABF08F018BFBF
:105E00007047704708B5094B094A1A60094B9B1A3D
:105E1000094A1360094B0A4A1A600A4B9B1A0A4A3C
:105E2000136001F0DFFAFFF7ECFF08BD382D000822
:105E300000E80F0800F80F08342D0008302D000886
:105E4000B075000800E80F082C2D000808B5FFF712
:105E5000D7FFFFF7B5FCBDE8084008F0C7BA00223D
:105E60001146FFF721BD70B50446FFF7F9F8064665
:105E7000FFF7E0F805463046FFF7DCF8431BA34286
:105E8000F9D370BD70B5144612686FF00046B24287
:105E90000546049807D238B10146184608F00CFEB2
:105EA000431C05D1206070BD15B18A4238BFAB5488
:105EB000236801332360F6E72DE9F74F1C4B1D4E95
:105EC0008846DDE90CBA9DF83C100746002908BF5A
:105ED0001E46914607250023EC00C4F12000A4F1E2
:105EE00020010AFA00F02BFA04F404432AFA01F123
:105EF0000C43E4B20BB904B9ADB9210904F00F04A5
:105F000003B939B10E9A735C009241464A4638464D
:105F1000FFF7B8FF0E9A335D009241464A46384675
:105F2000FFF7B0FF0123013DD6D203B0BDE8F08FEB
:105F300008FC001018FC00102DE9F04F002489B077
:105F40008046894692462146142203A8DDE912675D
:105F5000149D029408F0AAFE0DF1080B56EA0703FF
:105F600004D102AEACB909B0BDE8F08F3046394675
:105F70000A22002309F010F9303204F80B203046D1
:105F800039460A22002309F007F9013406460F4674
:105F9000E4E7013C0095335D524649464046FFF731
:105FA00071FFDFE72DE9F04F89B01C460023129EF8
:105FB00007938A461546B2B1994214DB0CBF012300
:105FC00001F1FF3A04934FF0000815F8083073B957
:105FD00048B1049B3BB9079B534595BF049A049B6A
:105FE000C25400F80A30079809B0BDE8F08F252B9D
:105FF00040F0198108F10102AB5C203BDBB2102BB1
:1060000006D88D4921FA03F3DF0748BF08F10202E1
:10601000AB5C2A2B1CD101320434AF5C2E2F05EB74
:10602000020352D15F782A2F17D04FF00009C5F133
:10603000010E0EEB030213F8017F303F5FFA87FC7D
:10604000BCF1090F0CD80A2202FB0979F1E70132F1
:10605000AB5C303B092BFAD9DFE754F8049B0232E2
:10606000AB5C682B34D1AB185B78682B0CBF722308
:10607000112303F0030B934415F80B70642F01D028
:10608000692F54D1822B3DD1073424F00704F4E862
:106090000223002A73F10001904699463DDA0096EA
:1060A0002D2307AA51460590FFF7ECFED8F1000812
:1060B000059869EB4909CDE90089029607AA51467E
:1060C0000590FFF739FF05987AE06FF00049C7E7C0
:1060D0006C2B06D1AB185B786C2B0CBF8223212371
:1060E000C7E76A2B08D07A2B08D0742B08D04C2B2A
:1060F00014BF00236123BCE73123BAE74123B8E78B
:106100005123B6E7112B54F8042B04D0722B08BF8F
:1061100052B2D317BDE712B2FBE71343CBD10096BF
:10612000302307AA51460590FFF7ACFECBE7752F49
:1061300003D007F0DF02582A2DD1822B0DD107346E
:1061400024F00704F4E80223752F16D152EA030164
:10615000E5D0CDE900230296B0E7512B54F8042B8B
:1061600009D0722B03D0112B03D00023ECE7D2B25D
:10617000FBE792B2F9E7D317E6E7A7F158014F42E0
:106180004F41CDE90267CDE90023514607AA0590AA
:10619000FFF792FE97E7632F04D154F8043B009673
:1061A000DBB2BEE7732F16D154F8048B08F1FF372A
:1061B00017F8013F23B1A9EB070218EB020F02D138
:1061C0000BF1010801E7009607AA51460590FFF779
:1061D00059FE0598ECE7702F1AD154F8047B00960D
:1061E000302307AA51460590FFF74CFE059800960C
:1061F000782307AA5146FFF745FE01233A46CDE929
:106200000263FB17CDE90023059807AA5146BFE7B3
:106210000096252307AA51460590252F18BFC3468F
:10622000FFF730FE4FE7009607AA51460590C34698
:10623000FFF728FE47E700BF0928010013B5002437
:106240000094FFF7AFFE02B010BDFFF708BE08B51F
:1062500000F040F900F008F800F0B6F800F02AF875
:10626000BDE8084000F034B8104B1A689368B2F8E3
:1062700070004FF08041C3F80014C15841F47F41D1
:10628000C15092F86E0092F86C309168834092F899
:106290006F0003228240134343F00043C1F80034EF
:1062A000D1F80034024801F08BBA00BF9C75000899
:1062B00028FC0010054B1B6893F83D202F2A82BF55
:1062C0009B680022C3F8BC2C704700BF9C75000877
:1062D00010B5274C274A0021204604F07DFC2648B3
:1062E00001F06EFA254A0121204604F075FC24488D
:1062F00001F066FA04F54074224801F061FA224A7E
:106300000421204604F068FC204801F059FA204A94
:106310000621204604F060FC1E4801F051FA1E4A96
:106320000721204604F058FC1C4801F049FA1C489B
:1063300001F046FA1B4801F043FA1B4801F040FA0D
:106340001A4801F03DFA1A4801F03AFA194801F0EA
:1063500037FA194801F034FA184801F031FA1848B0
:1063600001F02EFABDE81040164801F029BA00BF2E
:1063700000003140F4FC001028FD00102CFD00103E
:1063800060FD001049FC0010BCFC0010F0FC001087
:1063900084FC0010B8FC00104CFC001080FC0010C5
:1063A0002BFC00102EFC001031FC001034FC0010FF
:1063B00037FC00103AFC00103DFC001040FC0010BF
:1063C00043FC001046FC0010044B42F2080133224B
:1063D0005A5042F210015A50704700BF000030403E
:1063E0000A4B1B6893F83C30834281BF800000F168
:1063F000804000F51810D0F8803383BF43F000438D
:10640000C0F8803300200248704700BF9C75000828
:1064100001004A000A4B1B6893F83C3083420DD9B7
:10642000800000F1804000F51810D0F8803323F090
:106430000F031943C0F880130020704701487047CC
:106440009C75000801004A000B4B1B6893F83C3018
:1064500083420ED9800000F1804000F51810D0F87A
:10646000803323F0300343EA0111C0F88013002089
:1064700070470248704700BF9C75000801004A0041
:10648000044B1B681968D3F880208B5823F47F4392
:106490008B5070479C750008044B1B681968D3F833
:1064A00084208B5823F47F438B5070479C750008E1
:1064B000064BD3F80C2542F00042C3F80C25D3F864
:1064C0000C2542F00102C3F80C257047000026405D
:1064D000FEE7000073B59621002006F0B9FC06F037
:1064E00059FC70B906F048FCAA4BD3F88021D207BA
:1064F0005EBFD3F80C2522F00042C3F80C25FFF74D
:10650000D7FF012006F0D6FF012006F04DFEA24A7B
:10651000536C23F47F4343F468535364536CC3F3C5
:1065200007233A2B07D1536C23F0005323F468530D
:1065300043F4685353640021984D0846FFF784FFE5
:10654000FFF7AAFF2B681968D3F880208B5823F037
:106550007F4343F080738B50FFF792FF2B6893F8D3
:106560003B10002951D1012005F0C8FF2B6893F89A
:106570003C3003B901BE874BD3F8804314F00F04BD
:106580000AD1204605F0E2FF40F21113984203D1F0
:1065900001212046FFF73EFF7E4B7F4CD3F8882534
:1065A0007F4E22F0405242F00052C3F88825D3F8C3
:1065B000802522F00042C3F88025D3F88C250021E5
:1065C00022F00042C3F88C25084605F097FF002111
:1065D0000846FFF71FFF00231A461946714800932B
